{
  "_format": "hh-sol-artifact-1",
  "contractName": "TicketMarketplace",
  "sourceName": "contracts/TicketMarketplace.sol",
  "abi": [
    {
      "inputs": [
        {
          "internalType": "uint256",
          "name": "_eventId",
          "type": "uint256"
        }
      ],
      "name": "buyTicket",
      "outputs": [],
      "stateMutability": "payable",
      "type": "function"
    },
    {
      "inputs": [
        {
          "internalType": "string",
          "name": "_name",
          "type": "string"
        },
        {
          "internalType": "string",
          "name": "_description",
          "type": "string"
        },
        {
          "internalType": "uint256",
          "name": "_ticketPrice",
          "type": "uint256"
        },
        {
          "internalType": "uint256",
          "name": "_totalTickets",
          "type": "uint256"
        }
      ],
      "name": "createEvent",
      "outputs": [],
      "stateMutability": "nonpayable",
      "type": "function"
    },
    {
      "inputs": [
        {
          "internalType": "uint256",
          "name": "",
          "type": "uint256"
        }
      ],
      "name": "events",
      "outputs": [
        {
          "internalType": "uint256",
          "name": "eventId",
          "type": "uint256"
        },
        {
          "internalType": "address payable",
          "name": "creator",
          "type": "address"
        },
        {
          "internalType": "string",
          "name": "name",
          "type": "string"
        },
        {
          "internalType": "string",
          "name": "description",
          "type": "string"
        },
        {
          "internalType": "uint256",
          "name": "ticketPrice",
          "type": "uint256"
        },
        {
          "internalType": "uint256",
          "name": "totalTickets",
          "type": "uint256"
        },
        {
          "internalType": "uint256",
          "name": "ticketsSold",
          "type": "uint256"
        }
      ],
      "stateMutability": "view",
      "type": "function"
    },
    {
      "inputs": [
        {
          "internalType": "uint256",
          "name": "_eventId",
          "type": "uint256"
        }
      ],
      "name": "getEventInfo",
      "outputs": [
        {
          "internalType": "uint256",
          "name": "",
          "type": "uint256"
        },
        {
          "internalType": "address",
          "name": "",
          "type": "address"
        },
        {
          "internalType": "string",
          "name": "",
          "type": "string"
        },
        {
          "internalType": "string",
          "name": "",
          "type": "string"
        },
        {
          "internalType": "uint256",
          "name": "",
          "type": "uint256"
        },
        {
          "internalType": "uint256",
          "name": "",
          "type": "uint256"
        },
        {
          "internalType": "uint256",
          "name": "",
          "type": "uint256"
        }
      ],
      "stateMutability": "view",
      "type": "function"
    },
    {
      "inputs": [
        {
          "internalType": "uint256",
          "name": "_eventId",
          "type": "uint256"
        }
      ],
      "name": "getTicketHolders",
      "outputs": [
        {
          "internalType": "address[]",
          "name": "",
          "type": "address[]"
        }
      ],
      "stateMutability": "view",
      "type": "function"
    },
    {
      "inputs": [
        {
          "internalType": "uint256",
          "name": "_eventId",
          "type": "uint256"
        },
        {
          "internalType": "address",
          "name": "_ticketHolder",
          "type": "address"
        }
      ],
      "name": "getTicketInfo",
      "outputs": [
        {
          "internalType": "uint256",
          "name": "",
          "type": "uint256"
        },
        {
          "internalType": "uint256",
          "name": "",
          "type": "uint256"
        },
        {
          "internalType": "address",
          "name": "",
          "type": "address"
        }
      ],
      "stateMutability": "view",
      "type": "function"
    },
    {
      "inputs": [],
      "name": "nextEventId",
      "outputs": [
        {
          "internalType": "uint256",
          "name": "",
          "type": "uint256"
        }
      ],
      "stateMutability": "view",
      "type": "function"
    },
    {
      "inputs": [],
      "name": "nextTicketId",
      "outputs": [
        {
          "internalType": "uint256",
          "name": "",
          "type": "uint256"
        }
      ],
      "stateMutability": "view",
      "type": "function"
    },
    {
      "inputs": [
        {
          "internalType": "uint256",
          "name": "_eventId",
          "type": "uint256"
        }
      ],
      "name": "withdrawFunds",
      "outputs": [],
      "stateMutability": "nonpayable",
      "type": "function"
    }
  ],
  "bytecode": "0x608060405234801561001057600080fd5b506115a4806100206000396000f3fe6080604052600436106100855760003560e01c80636031a52f116100595780636031a52f1461017657806367dd74ca146101a15780639f9d903a146101bd578063bce062b9146101e8578063ccda900a1461021157610085565b80622a5cc91461008a5780630b791430146100c7578063155dd5ee1461010a5780631d645b1214610133575b600080fd5b34801561009657600080fd5b506100b160048036038101906100ac9190610cc4565b610250565b6040516100be9190610de1565b60405180910390f35b3480156100d357600080fd5b506100ee60048036038101906100e99190610cc4565b6102f3565b6040516101019796959493929190610ecc565b60405180910390f35b34801561011657600080fd5b50610131600480360381019061012c9190610cc4565b610465565b005b34801561013f57600080fd5b5061015a60048036038101906101559190610cc4565b61059c565b60405161016d9796959493929190610f58565b60405180910390f35b34801561018257600080fd5b5061018b610790565b6040516101989190610fd5565b60405180910390f35b6101bb60048036038101906101b69190610cc4565b610796565b005b3480156101c957600080fd5b506101d2610a06565b6040516101df9190610fd5565b60405180910390f35b3480156101f457600080fd5b5061020f600480360381019061020a9190611125565b610a0c565b005b34801561021d57600080fd5b50610238600480360381019061023391906111f0565b610ad5565b60405161024793929190611230565b60405180910390f35b60606000808381526020019081526020016000206007018054806020026020016040519081016040528092919081815260200182805480156102e757602002820191906000526020600020905b8160009054906101000a900473ffffffffffffffffffffffffffffffffffffffff1673ffffffffffffffffffffffffffffffffffffffff168152602001906001019080831161029d575b50505050509050919050565b60006020528060005260406000206000915090508060000154908060010160009054906101000a900473ffffffffffffffffffffffffffffffffffffffff169080600201805461034290611296565b80601f016020809104026020016040519081016040528092919081815260200182805461036e90611296565b80156103bb5780601f10610390576101008083540402835291602001916103bb565b820191906000526020600020905b81548152906001019060200180831161039e57829003601f168201915b5050505050908060030180546103d090611296565b80601f01602080910402602001604051908101604052809291908181526020018280546103fc90611296565b80156104495780601f1061041e57610100808354040283529160200191610449565b820191906000526020600020905b81548152906001019060200180831161042c57829003601f168201915b5050505050908060040154908060050154908060060154905087565b600080600083815260200190815260200160002090508060010160009054906101000a900473ffffffffffffffffffffffffffffffffffffffff1673ffffffffffffffffffffffffffffffffffffffff163373ffffffffffffffffffffffffffffffffffffffff161461050d576040517f08c379a000000000000000000000000000000000000000000000000000000000815260040161050490611313565b60405180910390fd5b600061052a82600601548360040154610bc190919063ffffffff16565b90508160010160009054906101000a900473ffffffffffffffffffffffffffffffffffffffff1673ffffffffffffffffffffffffffffffffffffffff166108fc829081150290604051600060405180830381858888f19350505050158015610596573d6000803e3d6000fd5b50505050565b6000806060806000806000806000898152602001908152602001600020600001546000808a815260200190815260200160002060010160009054906101000a900473ffffffffffffffffffffffffffffffffffffffff166000808b81526020019081526020016000206002016000808c81526020019081526020016000206003016000808d8152602001908152602001600020600401546000808e8152602001908152602001600020600501546000808f81526020019081526020016000206006015484805461066b90611296565b80601f016020809104026020016040519081016040528092919081815260200182805461069790611296565b80156106e45780601f106106b9576101008083540402835291602001916106e4565b820191906000526020600020905b8154815290600101906020018083116106c757829003601f168201915b505050505094508380546106f790611296565b80601f016020809104026020016040519081016040528092919081815260200182805461072390611296565b80156107705780601f1061074557610100808354040283529160200191610770565b820191906000526020600020905b81548152906001019060200180831161075357829003601f168201915b505050505093509650965096509650965096509650919395979092949650565b60025481565b60008060008381526020019081526020016000209050806004015434146107f2576040517f08c379a00000000000000000000000000000000000000000000000000000000081526004016107e99061137f565b60405180910390fd5b806005015481600601541061083c576040517f08c379a0000000000000000000000000000000000000000000000000000000008152600401610833906113eb565b60405180910390fd5b8060010160009054906101000a900473ffffffffffffffffffffffffffffffffffffffff1673ffffffffffffffffffffffffffffffffffffffff163373ffffffffffffffffffffffffffffffffffffffff16036108ce576040517f08c379a00000000000000000000000000000000000000000000000000000000081526004016108c59061147d565b60405180910390fd5b60008160080160003373ffffffffffffffffffffffffffffffffffffffff1673ffffffffffffffffffffffffffffffffffffffff16815260200190815260200160002090506002548160000181905550828160010181905550338160020160006101000a81548173ffffffffffffffffffffffffffffffffffffffff021916908373ffffffffffffffffffffffffffffffffffffffff1602179055506002600081548092919061097d906114cc565b9190505550816006016000815480929190610997906114cc565b919050555081600701339080600181540180825580915050600190039060005260206000200160009091909190916101000a81548173ffffffffffffffffffffffffffffffffffffffff021916908373ffffffffffffffffffffffffffffffffffffffff160217905550505050565b60015481565b6000806000600154815260200190815260200160002090506001548160000181905550338160010160006101000a81548173ffffffffffffffffffffffffffffffffffffffff021916908373ffffffffffffffffffffffffffffffffffffffff16021790555084816002019080519060200190610a8a929190610bd7565b5083816003019080519060200190610aa3929190610bd7565b5082816004018190555081816005018190555060016000815480929190610ac9906114cc565b91905055505050505050565b60008060008060008087815260200190815260200160002060080160008673ffffffffffffffffffffffffffffffffffffffff1673ffffffffffffffffffffffffffffffffffffffff16815260200190815260200160002060405180606001604052908160008201548152602001600182015481526020016002820160009054906101000a900473ffffffffffffffffffffffffffffffffffffffff1673ffffffffffffffffffffffffffffffffffffffff1673ffffffffffffffffffffffffffffffffffffffff16815250509050806000015181602001518260400151935093509350509250925092565b60008183610bcf9190611514565b905092915050565b828054610be390611296565b90600052602060002090601f016020900481019282610c055760008555610c4c565b82601f10610c1e57805160ff1916838001178555610c4c565b82800160010185558215610c4c579182015b82811115610c4b578251825591602001919060010190610c30565b5b509050610c599190610c5d565b5090565b5b80821115610c76576000816000905550600101610c5e565b5090565b6000604051905090565b600080fd5b600080fd5b6000819050919050565b610ca181610c8e565b8114610cac57600080fd5b50565b600081359050610cbe81610c98565b92915050565b600060208284031215610cda57610cd9610c84565b5b6000610ce884828501610caf565b91505092915050565b600081519050919050565b600082825260208201905092915050565b6000819050602082019050919050565b600073ffffffffffffffffffffffffffffffffffffffff82169050919050565b6000610d4882610d1d565b9050919050565b610d5881610d3d565b82525050565b6000610d6a8383610d4f565b60208301905092915050565b6000602082019050919050565b6000610d8e82610cf1565b610d988185610cfc565b9350610da383610d0d565b8060005b83811015610dd4578151610dbb8882610d5e565b9750610dc683610d76565b925050600181019050610da7565b5085935050505092915050565b60006020820190508181036000830152610dfb8184610d83565b905092915050565b610e0c81610c8e565b82525050565b6000610e1d82610d1d565b9050919050565b610e2d81610e12565b82525050565b600081519050919050565b600082825260208201905092915050565b60005b83811015610e6d578082015181840152602081019050610e52565b83811115610e7c576000848401525b50505050565b6000601f19601f8301169050919050565b6000610e9e82610e33565b610ea88185610e3e565b9350610eb8818560208601610e4f565b610ec181610e82565b840191505092915050565b600060e082019050610ee1600083018a610e03565b610eee6020830189610e24565b8181036040830152610f008188610e93565b90508181036060830152610f148187610e93565b9050610f236080830186610e03565b610f3060a0830185610e03565b610f3d60c0830184610e03565b98975050505050505050565b610f5281610d3d565b82525050565b600060e082019050610f6d600083018a610e03565b610f7a6020830189610f49565b8181036040830152610f8c8188610e93565b90508181036060830152610fa08187610e93565b9050610faf6080830186610e03565b610fbc60a0830185610e03565b610fc960c0830184610e03565b98975050505050505050565b6000602082019050610fea6000830184610e03565b92915050565b600080fd5b600080fd5b7f4e487b7100000000000000000000000000000000000000000000000000000000600052604160045260246000fd5b61103282610e82565b810181811067ffffffffffffffff8211171561105157611050610ffa565b5b80604052505050565b6000611064610c7a565b90506110708282611029565b919050565b600067ffffffffffffffff8211156110905761108f610ffa565b5b61109982610e82565b9050602081019050919050565b82818337600083830152505050565b60006110c86110c384611075565b61105a565b9050828152602081018484840111156110e4576110e3610ff5565b5b6110ef8482856110a6565b509392505050565b600082601f83011261110c5761110b610ff0565b5b813561111c8482602086016110b5565b91505092915050565b6000806000806080858703121561113f5761113e610c84565b5b600085013567ffffffffffffffff81111561115d5761115c610c89565b5b611169878288016110f7565b945050602085013567ffffffffffffffff81111561118a57611189610c89565b5b611196878288016110f7565b93505060406111a787828801610caf565b92505060606111b887828801610caf565b91505092959194509250565b6111cd81610d3d565b81146111d857600080fd5b50565b6000813590506111ea816111c4565b92915050565b6000806040838503121561120757611206610c84565b5b600061121585828601610caf565b9250506020611226858286016111db565b9150509250929050565b60006060820190506112456000830186610e03565b6112526020830185610e03565b61125f6040830184610f49565b949350505050565b7f4e487b7100000000000000000000000000000000000000000000000000000000600052602260045260246000fd5b600060028204905060018216806112ae57607f821691505b6020821081036112c1576112c0611267565b5b50919050565b7f4f6e6c79206576656e742063726561746f722063616e20776974686472617700600082015250565b60006112fd601f83610e3e565b9150611308826112c7565b602082019050919050565b6000602082019050818103600083015261132c816112f0565b9050919050565b7f496e636f7272656374207469636b657420707269636500000000000000000000600082015250565b6000611369601683610e3e565b915061137482611333565b602082019050919050565b600060208201905081810360008301526113988161135c565b9050919050565b7f4e6f206d6f7265207469636b657473206c656674000000000000000000000000600082015250565b60006113d5601483610e3e565b91506113e08261139f565b602082019050919050565b60006020820190508181036000830152611404816113c8565b9050919050565b7f596f752063616e6e6f742062757920796f7572206f776e206576656e7427732060008201527f7469636b65747321000000000000000000000000000000000000000000000000602082015250565b6000611467602883610e3e565b91506114728261140b565b604082019050919050565b600060208201905081810360008301526114968161145a565b9050919050565b7f4e487b7100000000000000000000000000000000000000000000000000000000600052601160045260246000fd5b60006114d782610c8e565b91507fffffffffffffffffffffffffffffffffffffffffffffffffffffffffffffffff82036115095761150861149d565b5b600182019050919050565b600061151f82610c8e565b915061152a83610c8e565b9250817fffffffffffffffffffffffffffffffffffffffffffffffffffffffffffffffff04831182151516156115635761156261149d565b5b82820290509291505056fea2646970667358221220d82962498e1abd3fd4b65308ed1f1475506c10cf2fbb8f34fc640e6aa1bb746a64736f6c634300080e0033",
  "linkReferences": {},
  "deployedLinkReferences": {}
}