{
  "_format": "hh-sol-artifact-1",
  "contractName": "TicketMarketplace",
  "sourceName": "contracts/TicketMarketplace.sol",
  "abi": [
    {
      "inputs": [
        {
          "internalType": "uint256",
          "name": "_eventId",
          "type": "uint256"
        }
      ],
      "name": "buyTicket",
      "outputs": [],
      "stateMutability": "payable",
      "type": "function"
    },
    {
      "inputs": [
        {
          "internalType": "string",
          "name": "_name",
          "type": "string"
        },
        {
          "internalType": "string",
          "name": "_description",
          "type": "string"
        },
        {
          "internalType": "string",
          "name": "_ipfsImageHash",
          "type": "string"
        },
        {
          "internalType": "uint256",
          "name": "_ticketPrice",
          "type": "uint256"
        },
        {
          "internalType": "uint256",
          "name": "_totalTickets",
          "type": "uint256"
        }
      ],
      "name": "createEvent",
      "outputs": [],
      "stateMutability": "nonpayable",
      "type": "function"
    },
    {
      "inputs": [
        {
          "internalType": "uint256",
          "name": "",
          "type": "uint256"
        }
      ],
      "name": "events",
      "outputs": [
        {
          "internalType": "uint256",
          "name": "eventId",
          "type": "uint256"
        },
        {
          "internalType": "address payable",
          "name": "creator",
          "type": "address"
        },
        {
          "internalType": "string",
          "name": "name",
          "type": "string"
        },
        {
          "internalType": "string",
          "name": "description",
          "type": "string"
        },
        {
          "internalType": "string",
          "name": "ipfsImageHash",
          "type": "string"
        },
        {
          "internalType": "uint256",
          "name": "ticketPrice",
          "type": "uint256"
        },
        {
          "internalType": "uint256",
          "name": "totalTickets",
          "type": "uint256"
        },
        {
          "internalType": "uint256",
          "name": "ticketsSold",
          "type": "uint256"
        }
      ],
      "stateMutability": "view",
      "type": "function"
    },
    {
      "inputs": [
        {
          "internalType": "uint256",
          "name": "_eventId",
          "type": "uint256"
        }
      ],
      "name": "getEventCreator",
      "outputs": [
        {
          "internalType": "address",
          "name": "",
          "type": "address"
        }
      ],
      "stateMutability": "view",
      "type": "function"
    },
    {
      "inputs": [
        {
          "internalType": "uint256",
          "name": "_eventId",
          "type": "uint256"
        }
      ],
      "name": "getEventInfo",
      "outputs": [
        {
          "internalType": "uint256",
          "name": "",
          "type": "uint256"
        },
        {
          "internalType": "string",
          "name": "",
          "type": "string"
        },
        {
          "internalType": "string",
          "name": "",
          "type": "string"
        },
        {
          "internalType": "string",
          "name": "",
          "type": "string"
        },
        {
          "internalType": "uint256",
          "name": "",
          "type": "uint256"
        },
        {
          "internalType": "uint256",
          "name": "",
          "type": "uint256"
        },
        {
          "internalType": "uint256",
          "name": "",
          "type": "uint256"
        }
      ],
      "stateMutability": "view",
      "type": "function"
    },
    {
      "inputs": [],
      "name": "getNumEvents",
      "outputs": [
        {
          "internalType": "uint256",
          "name": "",
          "type": "uint256"
        }
      ],
      "stateMutability": "view",
      "type": "function"
    },
    {
      "inputs": [
        {
          "internalType": "uint256",
          "name": "_eventId",
          "type": "uint256"
        }
      ],
      "name": "getTicketHolders",
      "outputs": [
        {
          "internalType": "address[]",
          "name": "",
          "type": "address[]"
        }
      ],
      "stateMutability": "view",
      "type": "function"
    },
    {
      "inputs": [
        {
          "internalType": "uint256",
          "name": "_eventId",
          "type": "uint256"
        },
        {
          "internalType": "address",
          "name": "_ticketHolder",
          "type": "address"
        }
      ],
      "name": "getTicketInfo",
      "outputs": [
        {
          "internalType": "uint256",
          "name": "",
          "type": "uint256"
        },
        {
          "internalType": "uint256",
          "name": "",
          "type": "uint256"
        },
        {
          "internalType": "address",
          "name": "",
          "type": "address"
        }
      ],
      "stateMutability": "view",
      "type": "function"
    },
    {
      "inputs": [],
      "name": "nextEventId",
      "outputs": [
        {
          "internalType": "uint256",
          "name": "",
          "type": "uint256"
        }
      ],
      "stateMutability": "view",
      "type": "function"
    },
    {
      "inputs": [],
      "name": "nextTicketId",
      "outputs": [
        {
          "internalType": "uint256",
          "name": "",
          "type": "uint256"
        }
      ],
      "stateMutability": "view",
      "type": "function"
    },
    {
      "inputs": [
        {
          "internalType": "uint256",
          "name": "_eventId",
          "type": "uint256"
        }
      ],
      "name": "withdrawFunds",
      "outputs": [],
      "stateMutability": "nonpayable",
      "type": "function"
    }
  ],
  "bytecode": "0x608060405234801561001057600080fd5b50611a77806100206000396000f3fe60806040526004361061009b5760003560e01c8063625ac7e511610064578063625ac7e5146101b857806367dd74ca146101e35780636c7f0d4e146101ff5780639f9d903a1461023c578063ccda900a14610267578063f5f00d84146102a65761009b565b80622a5cc9146100a05780630b791430146100dd578063155dd5ee146101215780631d645b121461014a5780636031a52f1461018d575b600080fd5b3480156100ac57600080fd5b506100c760048036038101906100c29190610f79565b6102cf565b6040516100d49190611096565b60405180910390f35b3480156100e957600080fd5b5061010460048036038101906100ff9190610f79565b610372565b604051610118989796959493929190611181565b60405180910390f35b34801561012d57600080fd5b5061014860048036038101906101439190610f79565b610572565b005b34801561015657600080fd5b50610171600480360381019061016c9190610f79565b6106a9565b6040516101849796959493929190611214565b60405180910390f35b34801561019957600080fd5b506101a2610909565b6040516101af9190611298565b60405180910390f35b3480156101c457600080fd5b506101cd61090f565b6040516101da9190611298565b60405180910390f35b6101fd60048036038101906101f89190610f79565b610919565b005b34801561020b57600080fd5b5061022660048036038101906102219190610f79565b610b89565b60405161023391906112c2565b60405180910390f35b34801561024857600080fd5b50610251610bc8565b60405161025e9190611298565b60405180910390f35b34801561027357600080fd5b5061028e60048036038101906102899190611309565b610bce565b60405161029d93929190611349565b60405180910390f35b3480156102b257600080fd5b506102cd60048036038101906102c891906114b5565b610cba565b005b606060008083815260200190815260200160002060080180548060200260200160405190810160405280929190818152602001828054801561036657602002820191906000526020600020905b8160009054906101000a900473ffffffffffffffffffffffffffffffffffffffff1673ffffffffffffffffffffffffffffffffffffffff168152602001906001019080831161031c575b50505050509050919050565b60006020528060005260406000206000915090508060000154908060010160009054906101000a900473ffffffffffffffffffffffffffffffffffffffff16908060020180546103c1906115b3565b80601f01602080910402602001604051908101604052809291908181526020018280546103ed906115b3565b801561043a5780601f1061040f5761010080835404028352916020019161043a565b820191906000526020600020905b81548152906001019060200180831161041d57829003601f168201915b50505050509080600301805461044f906115b3565b80601f016020809104026020016040519081016040528092919081815260200182805461047b906115b3565b80156104c85780601f1061049d576101008083540402835291602001916104c8565b820191906000526020600020905b8154815290600101906020018083116104ab57829003601f168201915b5050505050908060040180546104dd906115b3565b80601f0160208091040260200160405190810160405280929190818152602001828054610509906115b3565b80156105565780601f1061052b57610100808354040283529160200191610556565b820191906000526020600020905b81548152906001019060200180831161053957829003601f168201915b5050505050908060050154908060060154908060070154905088565b600080600083815260200190815260200160002090508060010160009054906101000a900473ffffffffffffffffffffffffffffffffffffffff1673ffffffffffffffffffffffffffffffffffffffff163373ffffffffffffffffffffffffffffffffffffffff161461061a576040517f08c379a000000000000000000000000000000000000000000000000000000000815260040161061190611630565b60405180910390fd5b600061063782600701548360050154610e7690919063ffffffff16565b90508160010160009054906101000a900473ffffffffffffffffffffffffffffffffffffffff1673ffffffffffffffffffffffffffffffffffffffff166108fc829081150290604051600060405180830381858888f193505050501580156106a3573d6000803e3d6000fd5b50505050565b600060608060606000806000806000898152602001908152602001600020600001546000808a81526020019081526020016000206002016000808b81526020019081526020016000206003016000808c81526020019081526020016000206004016000808d8152602001908152602001600020600501546000808e8152602001908152602001600020600601546000808f815260200190815260200160002060070154858054610758906115b3565b80601f0160208091040260200160405190810160405280929190818152602001828054610784906115b3565b80156107d15780601f106107a6576101008083540402835291602001916107d1565b820191906000526020600020905b8154815290600101906020018083116107b457829003601f168201915b505050505095508480546107e4906115b3565b80601f0160208091040260200160405190810160405280929190818152602001828054610810906115b3565b801561085d5780601f106108325761010080835404028352916020019161085d565b820191906000526020600020905b81548152906001019060200180831161084057829003601f168201915b50505050509450838054610870906115b3565b80601f016020809104026020016040519081016040528092919081815260200182805461089c906115b3565b80156108e95780601f106108be576101008083540402835291602001916108e9565b820191906000526020600020905b8154815290600101906020018083116108cc57829003601f168201915b505050505093509650965096509650965096509650919395979092949650565b60025481565b6000600154905090565b6000806000838152602001908152602001600020905080600501543414610975576040517f08c379a000000000000000000000000000000000000000000000000000000000815260040161096c9061169c565b60405180910390fd5b80600601548160070154106109bf576040517f08c379a00000000000000000000000000000000000000000000000000000000081526004016109b690611708565b60405180910390fd5b8060010160009054906101000a900473ffffffffffffffffffffffffffffffffffffffff1673ffffffffffffffffffffffffffffffffffffffff163373ffffffffffffffffffffffffffffffffffffffff1603610a51576040517f08c379a0000000000000000000000000000000000000000000000000000000008152600401610a489061179a565b60405180910390fd5b60008160090160003373ffffffffffffffffffffffffffffffffffffffff1673ffffffffffffffffffffffffffffffffffffffff16815260200190815260200160002090506002548160000181905550828160010181905550338160020160006101000a81548173ffffffffffffffffffffffffffffffffffffffff021916908373ffffffffffffffffffffffffffffffffffffffff16021790555060026000815480929190610b00906117e9565b9190505550816007016000815480929190610b1a906117e9565b919050555081600801339080600181540180825580915050600190039060005260206000200160009091909190916101000a81548173ffffffffffffffffffffffffffffffffffffffff021916908373ffffffffffffffffffffffffffffffffffffffff160217905550505050565b600080600083815260200190815260200160002060010160009054906101000a900473ffffffffffffffffffffffffffffffffffffffff169050919050565b60015481565b60008060008060008087815260200190815260200160002060090160008673ffffffffffffffffffffffffffffffffffffffff1673ffffffffffffffffffffffffffffffffffffffff16815260200190815260200160002060405180606001604052908160008201548152602001600182015481526020016002820160009054906101000a900473ffffffffffffffffffffffffffffffffffffffff1673ffffffffffffffffffffffffffffffffffffffff1673ffffffffffffffffffffffffffffffffffffffff16815250509050806000015181602001518260400151935093509350509250925092565b6004855110158015610cce57506032855111155b610d0d576040517f08c379a0000000000000000000000000000000000000000000000000000000008152600401610d04906118a3565b60405180910390fd5b60008211610d50576040517f08c379a0000000000000000000000000000000000000000000000000000000008152600401610d4790611935565b60405180910390fd5b60008111610d93576040517f08c379a0000000000000000000000000000000000000000000000000000000008152600401610d8a906119c7565b60405180910390fd5b6000806000600154815260200190815260200160002090506001548160000181905550338160010160006101000a81548173ffffffffffffffffffffffffffffffffffffffff021916908373ffffffffffffffffffffffffffffffffffffffff16021790555085816002019080519060200190610e11929190610e8c565b5084816003019080519060200190610e2a929190610e8c565b5083816004019080519060200190610e43929190610e8c565b5082816005018190555081816006018190555060016000815480929190610e69906117e9565b9190505550505050505050565b60008183610e8491906119e7565b905092915050565b828054610e98906115b3565b90600052602060002090601f016020900481019282610eba5760008555610f01565b82601f10610ed357805160ff1916838001178555610f01565b82800160010185558215610f01579182015b82811115610f00578251825591602001919060010190610ee5565b5b509050610f0e9190610f12565b5090565b5b80821115610f2b576000816000905550600101610f13565b5090565b6000604051905090565b600080fd5b600080fd5b6000819050919050565b610f5681610f43565b8114610f6157600080fd5b50565b600081359050610f7381610f4d565b92915050565b600060208284031215610f8f57610f8e610f39565b5b6000610f9d84828501610f64565b91505092915050565b600081519050919050565b600082825260208201905092915050565b6000819050602082019050919050565b600073ffffffffffffffffffffffffffffffffffffffff82169050919050565b6000610ffd82610fd2565b9050919050565b61100d81610ff2565b82525050565b600061101f8383611004565b60208301905092915050565b6000602082019050919050565b600061104382610fa6565b61104d8185610fb1565b935061105883610fc2565b8060005b838110156110895781516110708882611013565b975061107b8361102b565b92505060018101905061105c565b5085935050505092915050565b600060208201905081810360008301526110b08184611038565b905092915050565b6110c181610f43565b82525050565b60006110d282610fd2565b9050919050565b6110e2816110c7565b82525050565b600081519050919050565b600082825260208201905092915050565b60005b83811015611122578082015181840152602081019050611107565b83811115611131576000848401525b50505050565b6000601f19601f8301169050919050565b6000611153826110e8565b61115d81856110f3565b935061116d818560208601611104565b61117681611137565b840191505092915050565b600061010082019050611197600083018b6110b8565b6111a4602083018a6110d9565b81810360408301526111b68189611148565b905081810360608301526111ca8188611148565b905081810360808301526111de8187611148565b90506111ed60a08301866110b8565b6111fa60c08301856110b8565b61120760e08301846110b8565b9998505050505050505050565b600060e082019050611229600083018a6110b8565b818103602083015261123b8189611148565b9050818103604083015261124f8188611148565b905081810360608301526112638187611148565b905061127260808301866110b8565b61127f60a08301856110b8565b61128c60c08301846110b8565b98975050505050505050565b60006020820190506112ad60008301846110b8565b92915050565b6112bc81610ff2565b82525050565b60006020820190506112d760008301846112b3565b92915050565b6112e681610ff2565b81146112f157600080fd5b50565b600081359050611303816112dd565b92915050565b600080604083850312156113205761131f610f39565b5b600061132e85828601610f64565b925050602061133f858286016112f4565b9150509250929050565b600060608201905061135e60008301866110b8565b61136b60208301856110b8565b61137860408301846112b3565b949350505050565b600080fd5b600080fd5b7f4e487b7100000000000000000000000000000000000000000000000000000000600052604160045260246000fd5b6113c282611137565b810181811067ffffffffffffffff821117156113e1576113e061138a565b5b80604052505050565b60006113f4610f2f565b905061140082826113b9565b919050565b600067ffffffffffffffff8211156114205761141f61138a565b5b61142982611137565b9050602081019050919050565b82818337600083830152505050565b600061145861145384611405565b6113ea565b90508281526020810184848401111561147457611473611385565b5b61147f848285611436565b509392505050565b600082601f83011261149c5761149b611380565b5b81356114ac848260208601611445565b91505092915050565b600080600080600060a086880312156114d1576114d0610f39565b5b600086013567ffffffffffffffff8111156114ef576114ee610f3e565b5b6114fb88828901611487565b955050602086013567ffffffffffffffff81111561151c5761151b610f3e565b5b61152888828901611487565b945050604086013567ffffffffffffffff81111561154957611548610f3e565b5b61155588828901611487565b935050606061156688828901610f64565b925050608061157788828901610f64565b9150509295509295909350565b7f4e487b7100000000000000000000000000000000000000000000000000000000600052602260045260246000fd5b600060028204905060018216806115cb57607f821691505b6020821081036115de576115dd611584565b5b50919050565b7f4f6e6c79206576656e742063726561746f722063616e20776974686472617700600082015250565b600061161a601f836110f3565b9150611625826115e4565b602082019050919050565b600060208201905081810360008301526116498161160d565b9050919050565b7f496e636f7272656374207469636b657420707269636500000000000000000000600082015250565b60006116866016836110f3565b915061169182611650565b602082019050919050565b600060208201905081810360008301526116b581611679565b9050919050565b7f4e6f206d6f7265207469636b657473206c656674000000000000000000000000600082015250565b60006116f26014836110f3565b91506116fd826116bc565b602082019050919050565b60006020820190508181036000830152611721816116e5565b9050919050565b7f596f752063616e6e6f742062757920796f7572206f776e206576656e7427732060008201527f7469636b65747321000000000000000000000000000000000000000000000000602082015250565b60006117846028836110f3565b915061178f82611728565b604082019050919050565b600060208201905081810360008301526117b381611777565b9050919050565b7f4e487b7100000000000000000000000000000000000000000000000000000000600052601160045260246000fd5b60006117f482610f43565b91507fffffffffffffffffffffffffffffffffffffffffffffffffffffffffffffffff8203611826576118256117ba565b5b600182019050919050565b7f4576656e74206e616d65206d757374206265206265747765656e203420616e6460008201527f2035302063686172616374657273000000000000000000000000000000000000602082015250565b600061188d602e836110f3565b915061189882611831565b604082019050919050565b600060208201905081810360008301526118bc81611880565b9050919050565b7f5469636b6574207072696365206d75737420626520677265617465722074686160008201527f6e20300000000000000000000000000000000000000000000000000000000000602082015250565b600061191f6023836110f3565b915061192a826118c3565b604082019050919050565b6000602082019050818103600083015261194e81611912565b9050919050565b7f596f75206d7573742068617665206174206c656173742031207469636b65742060008201527f696e20796f7572206576656e7400000000000000000000000000000000000000602082015250565b60006119b1602d836110f3565b91506119bc82611955565b604082019050919050565b600060208201905081810360008301526119e0816119a4565b9050919050565b60006119f282610f43565b91506119fd83610f43565b9250817fffffffffffffffffffffffffffffffffffffffffffffffffffffffffffffffff0483118215151615611a3657611a356117ba565b5b82820290509291505056fea2646970667358221220ba2363c828bc9e88fff10ae48fc1585fec8a662d3e4f4784cd5a1fcb610dd33c64736f6c634300080e0033",
  "linkReferences": {},
  "deployedLinkReferences": {}
}